:100000000C9474000C9495000C9495000C9495003D
:100010000C9495000C9495000C9495000C9495000C
:100020000C9495000C94CB010C9495000C949500C5
:100030000C9495000C9495000C9495000C949500EC
:100040000C9495000C9495000C9495000C949500DC
:100050000C9495000C9495000C9495000C949500CC
:100060000C9495000C9495000C9495000C949500BC
:100070000C9495000C9495000C9495000C949500AC
:100080000C9495000C9495000C9495000C9495009C
:100090000C9495000C9495000C9495000C9495008C
:1000A0000C9495000C9495000C9495000C9495007C
:1000B0000C9495000C9495000C9495000C9495006C
:1000C0000C9495000C9495000C9495000C9495005C
:1000D0000C9495000C9495000C9495000C9495004C
:1000E0000C9495000C94970011241FBECFEFD1E221
:1000F000DEBFCDBF00E00CBF13E0A0E0B2E0E6EF52
:10010000F0E100E00BBF02C007900D92A035B107EF
:10011000D9F723E0A0E5B3E001C01D92A237B207F2
:10012000E1F70E94E6030C9479080C9400008A30F1
:1001300049F09091C00095FFFCCF8093C60080E00D
:1001400090E008959091C00095FFFCCF9DE09093C2
:10015000C600EFCF9093C5008093C40086E08093E3
:10016000C20088E98093C10008959091C00095FF76
:10017000FCCF8093C60008958091C00087FFFCCF1C
:100180008091C60008958091C000881F8827881F2D
:100190000895FC012081222351F031969091C000F6
:1001A00095FFFCCF2093C60021912111F7CF089530
:1001B00080E092E090936F0380936E031092C500ED
:1001C00082E38093C40086E08093C20088E9809334
:1001D000C10008958F30E0F490E0FC01EE0FFF1FA6
:1001E000E80FF91FEE0FFF1FEE0FFF1FE25FFD4F3D
:1001F000A081B1812C9181E090E0068002C0880F3F
:10020000991F0A94E2F7613021F0809582238C9344
:100210000895822B8C9308958F30E0F490E0FC01D8
:10022000EE0FFF1FE80FF91FEE0FFF1FEE0FFF1F6E
:10023000E25FFD4FA281B3812C9181E090E00680C6
:1002400002C0880F991F0A94E2F7613021F080956F
:1002500082238C930895822B8C9308958F30C8F459
:1002600090E0FC01EE0FFF1FE80FF91FEE0FFF1FDC
:10027000EE0FFF1FE25FFD4FA481B5812C9181E05D
:1002800090E0068002C0880F991F0A94E2F782234B
:10029000089580E0089581E084BD85BD84B5809394
:1002A000B00085B58093B100089590E0FC01EE0F99
:1002B000FF1FE80FF91FEE0FFF1FEE0FFF1FE25F9A
:1002C000FD4FA781B085109741F09C918385892BC4
:1002D0008C930184F285E02D1082089590E0FC015A
:1002E000EE0FFF1FE80FF91FEE0FFF1FEE0FFF1FAE
:1002F000E25FFD4F0184F285E02D309709F06083C5
:100300000895F89488E0E3E5F3E0DF01982F1D926B
:100310009A95E9F7EBE5F3E0DF011D928A95E9F79D
:100320001092520384B114B885B19FEF95B9E8E6F5
:10033000F0E0808181608083EBE6F0E08081908353
:1003400078940895F894EBE5F3E0A3E5B3E08D919C
:100350009C9111979183808312968D919C91139714
:100360009383828314968D919C91159795838483B2
:1003700016968D919C91179797838683789408950C
:10038000E82FF0E0EE0FFF1FE55AFC4F80819181CE
:10039000089584E008951F920F920FB60F921124D2
:1003A0000BB60F922F933F934F935F938F939F932F
:1003B000AF93BF93CF93DF93EF93FF93F89423B161
:1003C000E0915203A3E5B3E0CE2FC370CC0FCC0F66
:1003D000822F8370C82B0C2E000CDD0BC55DDC4F0B
:1003E00038818D919C911197830F911D37FD9A95BE
:1003F00011969C938E93822F86958695CE2FCC70E6
:10040000982F9370C92B0C2E000CDD0BC55DDC4FB3
:10041000988112964D915C911397490F511D97FD4C
:100420005A9513965C934E93129786958695E2950E
:10043000EF70CE2FC370CC0FCC0F982F9370C92BB9
:100440000C2E000CDD0BC55DDC4F988114964D9190
:100450005C911597490F511D97FD5A9515965C9320
:100460004E93149786958695EC70E82B0E2E000C13
:10047000FF0BE55DFC4F308116968D919C9117978F
:10048000830F911D37FD9A9517969C938E9316971F
:10049000209352037894FF91EF91DF91CF91BF9118
:1004A000AF919F918F915F914F913F912F910F90BD
:1004B0000BBE0F900FBE0F901F9018950F93CF9308
:1004C000DF93EC01798368835B834A833D832C83CC
:1004D0000E830E944B01EC81FD8161E081850E94C9
:1004E000EA00EC81FD8160E081850E940C01EC81D5
:1004F000FD8181850E945501EC81FD8160E081854F
:100500000E946E01EC81FD8161E087810E94EA001A
:10051000EC81FD8160E087810E940C01EC81FD810E
:1005200061E080850E94EA00EC81FD8160E08085C9
:10053000DF91CF910F910C940C016817790734F07B
:100540007195619571096817790714F0CB010895C9
:10055000BC01CB0108952F923F924F925F926F9210
:100560007F928F929F92AF92BF92CF92DF92EF9243
:10057000FF920F931F93CF93DF93EC010A811B81AE
:10058000F801E780F0848E810E94C001F801908715
:100590008783EA81FB81878190858E199F099487E3
:1005A0008387A881B98117962C911797223009F477
:1005B000DDC0213089F12111D9C018968C91282FE6
:1005C00030E0328721871F828887EC81FD8160E0DF
:1005D00087810E940C0161E08F818111DAC0EC817A
:1005E000FD8180850E940C01EC81FD8168858185FB
:1005F000DF91CF911F910F91FF90EF90DF90CF90FF
:10060000BF90AF909F908F907F906F905F904F9032
:100610003F902F900C946E0118962C90312C3286BE
:100620002186281A390A0C811D81B101032C000C86
:10063000880B990B0E94B2044B015C01F80166899A
:100640007789808D918D0E947A042B013C017B017A
:10065000F8012685378540895189C501B4010E947A
:100660003E05F80120A131A142A153A10E943E05FF
:10067000F801228D338D448D558D0E940E040E9409
:100680007A044616570644F0EE24FF24E418F508D1
:10069000E616F7060CF47B01B701FF0C880B990BEB
:1006A0000E94B2046B017C01F801628F738F848F0A
:1006B000958F8091500390915103B101681B790B84
:1006C000072E000C880B990B0E94B204F80124A19C
:1006D00035A146A157A10E943E05F8012289338920
:1006E000448955890E943E052B013C01F801228571
:1006F000338544855585C501B4010E943E05A70197
:1007000096010E940E049B01AC01C301B2010E943C
:100710000E040E947A04F801468D578D461757073C
:100720004CF022273327241B350BAB0162177307CC
:100730000CF4A90157FD2FC060E06F834887F801D2
:1007400087810E940C0161E08F81811160E0EC8162
:10075000FD8180850E940C01EC81FD816885818589
:100760000E946E013092510320925003DF91CF918D
:100770001F910F91FF90EF90DF90CF90BF90AF90BF
:100780009F908F907F906F905F904F903F902F90B1
:10079000089560E024CF51954195510961E0CDCF96
:1007A0000F930E94810103E02DEE32E045E153E01A
:1007B00062E273E083E693E00E945E020F91089587
:1007C0000E94A20183E693E00C94AB020E94D80041
:1007D0000E944B0161E084E00E94EA0084E00E94F4
:1007E0005501C0E00BE313E06C2F84E00E946E0122
:1007F0001F92CF931F930F930E94AB052FEF80E7BB
:1008000092E0215080409040E1F700C00000CC5EB3
:100810000F900F900F900F90E7CF5058BB27AA274B
:100820000E9425040C9404050E94F60438F00E94EE
:10083000FD0420F039F49F3F19F426F40C94F304DE
:100840000EF4E095E7FB0C94ED04E92F0E941505EA
:1008500058F3BA17620773078407950720F079F4F5
:10086000A6F50C9437050EF4E0950B2EBA2FA02DAB
:100870000B01B90190010C01CA01A0011124FF274D
:10088000591B99F0593F50F4503E68F11A16F04048
:10089000A22F232F342F4427585FF3CF4695379547
:1008A0002795A795F0405395C9F77EF41F16BA0B0C
:1008B000620B730B840BBAF09150A1F0FF0FBB1FBA
:1008C000661F771F881FC2F70EC0BA0F621F731F03
:1008D000841F48F4879577956795B795F7959E3F60
:1008E00008F0B0CF9395880F08F09927EE0F9795F1
:1008F000879508950E9481046894B1110C9438057D
:1009000008950E941D0588F09F5798F0B92F9927E8
:10091000B751B0F0E1F0660F771F881F991F1AF0EA
:10092000BA95C9F714C0B13091F00E943705B1E013
:1009300008950C943705672F782F8827B85F39F012
:10094000B93FCCF3869577956795B395D9F73EF483
:1009500090958095709561957F4F8F4F9F4F08952B
:10096000E89409C097FB3EF4909580957095619549
:100970007F4F8F4F9F4F9923A9F0F92F96E9BB27FF
:100980009395F695879577956795B795F111F8CF7B
:10099000FAF4BB0F11F460FF1BC06F5F7F4F8F4FE6
:1009A0009F4F16C0882311F096E911C0772321F0DC
:1009B0009EE8872F762F05C0662371F096E8862F74
:1009C00070E060E02AF09A95660F771F881FDAF7CB
:1009D000880F9695879597F9089597F99F6780E80E
:1009E00070E060E008959FEF80EC089500240A9481
:1009F0001616170618060906089500240A941216FA
:100A00001306140605060895092E0394000C11F42C
:100A1000882352F0BB0F40F4BF2B11F460FF04C0D9
:100A20006F5F7F4F8F4F9F4F089557FD9058440F32
:100A3000551F59F05F3F71F04795880F97FB991F3D
:100A400061F09F3F79F087950895121613061406FA
:100A5000551FF2CF4695F1DF08C016161706180687
:100A6000991FF1CF86957105610508940895E89462
:100A7000BB2766277727CB0197F908950E94510578
:100A80000C9404050E94F60438F00E94FD0420F046
:100A9000952311F00C94ED040C94F30411240C94A0
:100AA00038050E94150570F3959FC1F3950F50E02E
:100AB000551F629FF001729FBB27F00DB11D639F10
:100AC000AA27F00DB11DAA1F649F6627B00DA11DB6
:100AD000661F829F2227B00DA11D621F739FB00D5C
:100AE000A11D621F839FA00D611D221F749F3327CC
:100AF000A00D611D231F849F600D211D822F762F65
:100B00006A2F11249F5750409AF0F1F088234AF041
:100B1000EE0FFF1FBB1F661F771F881F91505040AD
:100B2000A9F79E3F510580F00C94ED040C94380514
:100B30005F3FE4F3983ED4F3869577956795B79534
:100B4000F795E7959F5FC1F7FE2B880F911D96954E
:100B5000879597F90895CF93DF93CDB7DEB7AE01B0
:100B60004A5F5F4FFA0161917191AF0180916E030D
:100B700090916F030E94BF05DF91CF9108952F924E
:100B80003F924F925F926F927F928F929F92AF921D
:100B9000BF92CF92DF92EF92FF920F931F93CF936A
:100BA000DF93CDB7DEB72B970FB6F894DEBF0FBE3D
:100BB000CDBF6C017B018A01FC0117821682838103
:100BC00081FFCCC1CE0101963C01F6019381F70172
:100BD00093FD859193FF81917F01882309F4BAC128
:100BE000853239F493FD859193FF81917F018532A0
:100BF00029F4B60190E00E94DF07E7CF912C212C69
:100C0000312CFFE1F315D8F08B3279F038F48032D3
:100C100079F08332A1F4232D20611DC08D3261F063
:100C2000803369F4232D216016C0832D8260382E15
:100C3000E32DE4603E2E2AC0F32DF8601DC037FC82
:100C40002DC020ED280F2A3040F08E32B9F436FC4A
:100C500081C1232D2064322E19C036FE06C08AE0E1
:100C6000989E200D1124922E11C0EAE02E9E200D98
:100C70001124222EF32DF0623F2E08C08C3621F471
:100C8000832D8068382E02C0883641F4F70193FD29
:100C9000859193FF81917F018111B3CF982F9F7D23
:100CA0009554933028F40C5F1F4F9FE399830DC038
:100CB000833631F0833771F0833509F059C021C094
:100CC000F801808189830E5F1F4F88248394912CC3
:100CD000530113C02801F2E04F0E511CF801A0800F
:100CE000B18036FE03C0692D70E002C06FEF7FEF68
:100CF000C5010E94D4074C018201F32DFF773F2EDE
:100D000016C0280122E0420E511CF801A080B180DB
:100D100036FE03C0692D70E002C06FEF7FEFC501A2
:100D20000E94C9074C01F32DF0683F2E820133FC6D
:100D30001BC0822D90E088169906B0F4B60180E2BF
:100D400090E00E94DF072A94F4CFF50137FC8591EB
:100D500037FE81915F01B60190E00E94DF0721100C
:100D60002A9421E0821A91088114910471F7E8C055
:100D7000843611F0893641F5F80137FE07C06081ED
:100D80007181828193810C5F1F4F08C060817181E6
:100D9000072E000C880B990B0E5F1F4FF32DFF766B
:100DA0003F2E97FF09C090958095709561957F4F74
:100DB0008F4F9F4FF0683F2E2AE030E0A3010E9442
:100DC0001B08882E861845C0853731F4232D2F7EC9
:100DD000B22E2AE030E025C0932D997FB92E8F36B0
:100DE000C1F018F4883579F0B5C0803719F088372C
:100DF00021F0B0C0E92FE061BE2EB4FE0DC0FB2D86
:100E0000F460BF2E09C034FE0AC0292F2660B22E1E
:100E100006C028E030E005C020E130E002C020E15B
:100E200032E0F801B7FE07C0608171818281938151
:100E30000C5F1F4F06C06081718180E090E00E5F03
:100E40001F4FA3010E941B08882E8618FB2DFF77D9
:100E50003F2E36FE0DC0232D2E7FA22E891458F46E
:100E600034FE0BC032FC09C0832D8E7EA82E05C037
:100E7000B82CA32C03C0B82C01C0B92CA4FE0FC001
:100E8000FE01E80DF11D8081803321F49A2D997EB9
:100E9000A92E09C0A2FE06C0B394B39404C08A2D43
:100EA000867809F0B394A3FC11C0A0FE06C0B2146A
:100EB00088F4280C922C9B180EC0B21460F4B60172
:100EC00080E290E00E94DF07B394F7CFB21418F4E9
:100ED0002B1802C0982C212CA4FE10C0B60180E370
:100EE00090E00E94DF07A2FE17C0A1FC03C088E7C4
:100EF00090E002C088E590E0B6010CC08A2D8678AB
:100F000059F0A1FE02C08BE201C080E2A7FC8DE295
:100F1000B60190E00E94DF07891438F4B60180E33F
:100F200090E00E94DF079A94F7CF8A94F301E80DCE
:100F3000F11D8081B60190E00E94DF078110F5CF9E
:100F4000222009F442CEB60180E290E00E94DF0741
:100F50002A94F6CFF6018681978102C08FEF9FEF2A
:100F60002B960FB6F894DEBF0FBECDBFDF91CF91A9
:100F70001F910F91FF90EF90DF90CF90BF90AF90B7
:100F80009F908F907F906F905F904F903F902F90A9
:100F90000895FC010590615070400110D8F78095CC
:100FA00090958E0F9F1F0895FC0161507040019035
:100FB0000110D8F7809590958E0F9F1F08950F937D
:100FC0001F93CF93DF93FB01238121FD03C08FEF9C
:100FD0009FEF2CC022FF16C04681578124813581A6
:100FE0004217530744F4A081B1819D012F5F3F4F09
:100FF000318320838C93268137812F5F3F4F378346
:10100000268314C08B01EC01FB010084F185E02DE7
:101010001995892BE1F6D80116968D919C91179719
:10102000019617969C938E931697CE01DF91CF91E0
:101030001F910F910895FA01AA27283051F120310C
:1010400081F1E8946F936E7F6E5F7F4F8F4F9F4F5C
:10105000AF4FB1E03ED0B4E03CD0670F781F891F9E
:101060009A1FA11D680F791F8A1F911DA11D6A0F6C
:10107000711D811D911DA11D20D009F468943F911F
:101080002AE0269F11243019305D3193DEF6CF011E
:101090000895462F4770405D4193B3E00FD0C9F7E4
:1010A000F6CF462F4F70405D4A3318F0495D31FD51
:1010B0004052419302D0A9F7EACFB4E0A6959795A4
:1010C000879577956795BA95C9F70097610571057A
:1010D00008959B01AC010A2E0694579547953795C4
:1010E0002795BA95C9F7620F731F841F951FA01D1E
:0610F0000895F894FFCF03
:1010F6000000000200000000970000000000200031
:10110600220021000600000000002D002E002C0009
:101116000100000000002D002E002C000490009A13
:1011260000302D002E002C000590009C000C330092
:10113600340032000544004800302D002E002C00FB
:101146000390009800C001010201000103A000A85D
:1011560000C001010201000104A000AA0030010143
:101166000201000105A000AC000C01010201000112
:1011760006B000B4003024002500230004B000B3FC
:1011860000C02400250023000580008800C024003C
:10119600250023000680008A003024002500230055
:1011A600074400470080030F000000000000000015
:1011B60000000000000228000000000007080900E7
:1011C60000A0400000F0410000000000007F430046
:1011D600000000FF000AD7233C0000C84202280096
:1011E600000000000506040000A0400000F04100D9
:1011F60000000000007F4300000000FF000AD72324
:101206003C0000C842010D00000000000000000084
:1012160000000009000000000001FF0001FF00FFC0
:10122600000001010000FF00FF0100696E74656E99
:1012360073697479206C6564203D2025750A000069
:00000001FF
